S01700004763634170706C69636174696F6E322E737265635A
S11300000C9465000C9482000C9482000C94820081
S11300100C9482000C9482000C9482000C94820054
S11300200C9482000C9482000C9482000C94820044
S11300300C9482000C9482000C9482000C94820034
S11300400C9482000C9482000C9482000C94820024
S11300500C9482000C9482000C9482000C94820014
S11300600C9482000C9482006F038303D103EB038E
S1130070F2034D04AB04C304E4041A051A051A057B
S11300801A051A053D031A051A051A051A051A0553
S11300901A051A051A051A051A051A051A051A0564
S11300A01A051A051A051A051A051A051A051A0554
S11300B01A051A051A051A051A051A051A051A0544
S11300C01A051A051A051A05050511241FBECFEFD6
S11300D0D8E0DEBFCDBF14E0A0E0B1E0E4E6F0E19B
S11300E002C005900D92AA34B107D9F724E0AAE41E
S11300F0B4E001C01D92AD34B207E1F70E94DC0206
S11301000C9430080C940000ECE7F0E080818164EA
S11301108083EAE7F0E08081876C8083808186FDBC
S1130120FDCF80917800909179000895EAE7F0E09E
S1130130808180648083808186FDFDCF80917800FA
S11301409091790008950F931F93CF93DF93D82F45
S1130150882359F0C0E000E010E00E949600080FE8
S1130160191FCF5FCD13F9CF02C000E010E06D2F4F
S113017070E0C8010E94A707CB01DF91CF911F91C6
S11301800F9108950E94EE050895CF93DF9300D058
S1130190CDB7DEB744E060E082E60E943B078530DD
S11301A0D9F08111F7CF22E0AE014F5F5F4F6FE8C6
S11301B082E60E945B07853091F08111F4CF29819A
S11301C030E08A81322F2227280F311D2115310575
S11301D049F0822F932F08C085E090E005C085E0A8
S11301E090E002C080EA9FE00F900F90DF91CF91E2
S11301F00895EF92FF920F931F93CF937C01892B65
S1130200A1F0C0E000E010E00E94C500080F191F33
S113021087EC90E00197F1F700C00000CF5F2C2F2E
S113022030E02E153F0580F302C000E010E0C80165
S1130230B7010E94A707CB01CF911F910F91FF90A7
S1130240EF900895CF93882311F0C0E801C0C0EA6D
S11302504C2F60E082E60E943B07853019F0811143
S1130260F7CF01C085E0CF91089540E060E082E6D9
S11302700E943B07853019F08111F7CF089585E07E
S11302800895CF93DF931F92CDB7DEB744E060E0CB
S113029082E60E943B07853081F08111F7CF22E08E
S11302A0AE014F5F5F4F69E082E60E945B078530D5
S11302B031F08111F4CF898103C085E001C085E06C
S11302C00F90DF91CF9108950F931F93CF93DF93F6
S11302D0D82F882369F0C0E000E010E00E944101BB
S11302E0080F111D87FD1A95CF5FCD13F7CF02C0FC
S11302F000E010E06D2F70E0C8010E94BB07862F5C
S1130300DF91CF911F910F910895CF93DF938038A0
S11303102FEF920714F480E89FEFEC0180389105E9
S113032014F0CFE7D0E04C2F63E182E60E943B0754
S1130330853019F08111F7CF01C085E0DF91CF91AD
S11303400895CF93DF931F92CDB7DEB721E0AE01BE
S11303504F5F5F4F63E182E60E945B07853021F0C7
S11303608111F4CF898101C085E00F90DF91CF9195
S11303700895181619066CF420E030E0EFE9FFE068
S11303803197F1F700C000002F5F3F4F281739075E
S1130390A9F7089584B5836A84BD85B5826085BD57
S11303A088E787BD88BD08958AB18C6F8AB9209A81
S11303B08BB180678BB90E94CA010895EF92FF92B6
S11303C00F931F93CF93882309F474C0C62F082F6B
S11303D010E00F2EF8ECEF2EF12CF02D20914B04B1
S11303E030E02F5F3F4F23703078332334F42150B3
S11303F031092C6F3F6F2F5F3F4F20934B04C13067
S113040049F580914A0490E00196B7010E94BB0728
S113041080934A04213061F028F0223079F02330AF
S113042099F040C05B9A289A8BB18B778BB93AC00C
S11304308BB188688BB95A98289834C08BB184687A
S11304408BB95B9828982EC05A9A289A8BB18777D3
S11304508BB928C080914A0490E00197B7010E94AB
S1130460BB0780934A04213061F028F0223079F0F0
S1130470233099F017C05A9A289A8BB187778BB991
S113048011C08BB184688BB95B9828980BC08BB171
S113049088688BB95A98289805C05B9A289A8BB1BA
S11304A08B778BB98091000190E00E94B9011F5FA6
S11304B0101394CFCF911F910F91FF90EF90089557
S11304C091E0883C08F490E028E3929F800D112489
S11304D0982F80914A04981728F46FEF891B0E9483
S11304E0DE010895891728F461E0981B892F0E9482
S11304F0DE01089580914A040895FF920F931F939B
S1130500CF93DF9301E0FF24F3941F2DA8958FEF81
S11305100E94A300EC010E94410588EB93E00E9435
S11305203205A99740F4602F82E00E94DE0182E345
S113053080934A0414C0013029F46F2D8F2D0E943A
S1130540DE0104C06FEF8F2D0E94DE011F5F1536A0
S1130550E9F60195602F84E60E94DE01D6CFDF9193
S1130560CF911F910F91FF9008950F931F93CF93F5
S1130570DF93082F162FEA0182E091E00E943205F2
S1130580802F90E00E94410589E091E00E943205AD
S1130590812F90E00E94410581E191E00E943205A3
S11305A0CE010E94410588EB93E00E943205DF9161
S11305B0CF911F910F9108959FE088E10FB6F894B1
S11305C0A895809360000FBE909360000E941F0561
S11305D088E191E00E943205A8950E94C20088E259
S11305E091E00E943205A8950E94840085E391E081
S11305F00E943205A8950E94D40182E491E00E94F1
S11306003205A8950E94CC0583E591E00E9432054D
S1130610A89582E691E00E9432050E947D02A89589
S113062083E791E00E94320583E991E00E9432055C
S113063083EA91E00E943205A895CAE0D0E0B12C8B
S113064044244394942CCB2CF42CDB2C0F2EF4E672
S1130650AF2EF02DEA2CA8950E945B058332D9F7C2
S11306600E945B0590E0FC01F197E133F10508F08D
S1130670E1C1EC5CFF4F0C94CF07A89583EC91E0AB
S11306800E94320588ED91E00E94320585EE91E0EA
S11306900E94320588E092E00E9432058DE192E0EA
S11306A00E9432058DE492E00E94320581E692E0D8
S11306B00E94320580E892E00E9432058FE992E0C0
S11306C00E9432058AED92E00E94320585E093E0B3
S11306D00E94320582E393E00E943205BCCFA895C4
S11306E084E593E00E9432058C2F9D2F0E94F9002F
S11306F08C010E94EB05882E0E947A02A801682DC5
S11307000E94B502A8CFA89588E693E00E9432051E
S11307106B2CA89581E0681609F49DCF0E947A029B
S1130720813001F58C2CA8950E945B05833221F45D
S11307300E947D02692CEDCF882D0E9460028C2FCF
S11307409D2F0E94F9008C010E94EB05782E0E94D7
S11307507A02A801672D0E94B502839485E6881267
S1130760E2CFD7CF8A2CA8950E945B05833221F46F
S11307700E947D02692CCDCF882D0E9460028C2FAF
S11307809D2F0E94F9008C010E94EB05782E0E9497
S11307907A02A801672D0E94B5028A948110E3CFE2
S11307A0B8CFA8950E945B050E946F05182F0E9480
S11307B06F05082F812F0E946002802F0E94D505AB
S11307C045E050E0602F812F0E94B50284E893E059
S11307D00E94320540CF0E947D0287E893E00E9488
S11307E0320539CF85E993E00E9432055B2CA89548
S11307F081E0581609F42FCFA8956C2C04C0A89555
S113080081E05816A1F3862D0E94D5050E947A0234
S1130810813001F58D2CA8950E945B05833221F46B
S11308200E947D025F2C34C0882D0E9460028C2FB0
S11308309D2F0E94F9008C010E94EB05782E0E94E6
S11308407A02A801672D0E94B502839485E6881276
S1130850E2CF1EC08E2CA8950E945B05833221F442
S11308600E947D025F2C14C0882D0E9460028C2F90
S11308709D2F0E94F9008C010E94EB05782E0E94A6
S11308807A02A801672D0E94B5028A948110E3CFF1
S1130890639485EB6812B3CFAACF8BEB93E00E94ED
S11308A032055B2CA89581E0581609F4D4CEA8959E
S11308B06C2C05C0A895639481E0581699F3862D95
S11308C00E9460020E94EB05813001F58D2CA895F1
S11308D00E945B05833221F40E947D025F2C37C0A5
S11308E0882D0E94D5058C2F9D2F0E94F9008C0124
S11308F00E94EB05782E0E947A02A801672D0E94BF
S1130900B50283948EE28812E2CF21C00F2EFDE25D
S11309108F2EF02DA8950E945B05833221F40E944E
S11309207D025F2C14C0882D0E94D5058C2F9D2F2D
S11309300E94F9008C010E94EB05782E0E947A0235
S1130940A801672D0E94B5028A948110E3CF84E642
S11309506812B0CFA7CF81EE93E00E943205A8952C
S11309600E946F05082F192FC82FD92F8DE094E00E
S11309700E943205802F912F0E94410588EB93E05D
S11309800E94320568CE8AED92E00E943205A89555
S1130990842D0E9422018C2F0E946401082F880F4D
S11309A0110B0E94350181E294E00E94320511236B
S11309B03CF41195019511098DE294E00E943205F1
S11309C0C8010E94410547CE85E093E00E943205AC
S11309D0A8958B2D0E9422018C2F0E946401082F60
S11309E0880F110B0E94350181E294E00E943205C8
S11309F011233CF41195019511098DE294E00E94B4
S1130A003205C8010E94410526CE82E393E00E948C
S1130A103205A8950E946F050E9485018FE294E03B
S1130A200E9432050E94A101082E000C990B0E941D
S1130A30410511CE89E394E00E9432050CCE109258
S1130A40C5001092C40086E08093C20088E18093C0
S1130A50C1000895E0ECF0E0908195FFFDCF809314
S1130A60C6000895CF93DF93EC018881882331F089
S1130A7021960E942A0589918111FBCFDF91CF91A4
S1130A800895CF93DF9300D000D000D0CDB7DEB768
S1130A904AE0BE016F5F7F4F0E94F307CE010196CB
S1130AA00E94320526960FB6F894DEBF0FBECDBF66
S1130AB0DF91CF91089583E3E0ECF0E008C0AFE963
S1130AC0BFE01197F1F700C00000815031F0908130
S1130AD09923ACF78091C600089580E00895FF92B1
S1130AE00F931F93CF93DF931F92CDB7DEB7198275
S1130AF00F2EF6E0FF2EF02D00E010E00E945B05C3
S1130B0089830115110519F48D3251F51DC08053E7
S1130B108A30E0F4083E83E01807FCF4C801880F2B
S1130B20991F000F111F000F111F000F111F080F35
S1130B30191FCE0101960E94D507080F191FFA94B8
S1130B40F110DCCFC80111C02FEF01C021E0209FBC
S1130B50C001219F900D112408C080E090E005C0E1
S1130B6080538A30D8F221E0F2CF0F90DF91CF91F9
S1130B701F910F91FF900895219A82E085B982E830
S1130B80809380008BE18093810087E893E19093C8
S1130B9087008093860008950E94BC058FE392E04D
S1130BA090938900809388000895482F24EB281B94
S1130BB0253B80F437E1239FC00111246AE070E0F3
S1130BC00E94BB076A567F4F709389006093880028
S1130BD040934C04089580914C040895E9EBF0E0AF
S1130BE0808180838081808388E48093B80084E45A
S1130BF08093BC000895ECEBF0E0108284E48083E1
S1130C000895ECEBF0E084E9808390910101208168
S1130C10822F807124FF15C0911105C083E00895CF
S1130C20911103C00DC0ECEBF0E085E88A95F1F773
S1130C30000091502081822F807124FDF1CF08950E
S1130C4083E00895CF938093BB00ECEBF0E084E85D
S1130C50808380910101908199238CF0811105C0DA
S1130C6083E036C0811103C02EC0ECEBF0E095E8C0
S1130C709A95F1F700008150908199239CF7809117
S1130C80B900887F883109F18091B900887F803468
S1130C90F1F08091B900887F803229F08091B90009
S1130CA0887F883441F48091B900C82FC87F0E949E
S1130CB001068C2F0DC08091B900C82FC87F0E94F7
S1130CC0FB058C2F05C083E003C080E001C080E0F9
S1130CD0CF910895CF938093BB00ECEBF0E084E8D0
S1130CE0808380910101908199238CF0811105C04A
S1130CF083E02AC0811103C024C0ECEBF0E095E846
S1130D009A95F1F700008150908199239CF7809186
S1130D10B900887F8832B9F08091B900887F88351E
S1130D2041F48091B900C82FC87F0E9401068C2F1E
S1130D300BC08091B900C82FC87F0E94FB058C2F7F
S1130D4003C083E001C080E0CF910895CF93ECEB22
S1130D50F0E084EC808380910101908199238CF0F0
S1130D60811105C083E01FC0811103C01BC0ECEBDF
S1130D70F0E095E89A95F1F700008150908199236D
S1130D809CF78091B900887F883341F48091B90041
S1130D90C82FC87F0E94FB058C2F05C08091B90025
S1130DA0887F01C083E0CF910895CF93ECEBF0E00E
S1130DB084E8808380910101908199238CF08111D2
S1130DC005C083E01FC0811103C01BC0ECEBF0E041
S1130DD095E89A95F1F700008150908199239CF74A
S1130DE08091B900887F883341F48091B900C82F7D
S1130DF0C87F0E94FB058C2F05C08091B900887FB5
S1130E0001C083E0CF9108958091B900887F08954F
S1130E10CF930E940407ECEBF0E08081846A808326
S1130E2080910101908199238CF0811105C085E0A6
S1130E3020C0811103C017C0ECEBF0E095E89A954F
S1130E40F1F700008150908199239CF70E940407D8
S1130E50C82F883051F0803151F0883351F40E940A
S1130E60FB058C2F06C085E004C080E002C080E052
S1130E7000C0CF9108951F93CF93DF93C82FD62F2F
S1130E80142F0E940807811112C08C2F880F0E9412
S1130E90220681110CC08D2F0E946A06811107C0A1
S1130EA0812F0E946A06811102C00E940106DF910F
S1130EB0CF911F910895CF92DF92FF920F931F93CA
S1130EC0CF93DF93C82F162FF42E052FD22F0E9415
S1130ED00807811134C0CC0F8C2F0E942206811187
S1130EE02EC0812F0E946A06811129C00E94080722
S1130EF0811125C081E08C0F0E94220681111FC040
S1130F00DD23D9F0CF2CD02EC0E0FF24FA94FD0EBF
S1130F100BEB10E0CF1105C00E94D506883529F0EF
S1130F200EC00E94A606803551F4F8018081F601B6
S1130F3081936F01CF5FCD13EDCF0E940106DF9146
S1130F40CF911F910F91FF90DF90CF900895AA1B2E
S1130F50BB1B51E107C0AA1FBB1FA617B70710F0A0
S1130F60A61BB70B881F991F5A95A9F780959095D2
S1130F70BC01CD01089597FB072E16F4009407D009
S1130F8077FD09D00E94A70707FC05D03EF4909591
S1130F9081959F4F0895709561957F4F0895EE0F49
S1130FA0FF1F0590F491E02D0994FC0188279927EF
S1130FB0E89421912032E9F3293010F02E30C8F35F
S1130FC02B3241F02D3239F4689404C00E94FE079C
S1130FD0820F911D219120532A30C0F31EF4909565
S1130FE081959F4F0895BB274A3031F4992322F409
S1130FF0BDE2909581959F4F0C9407087AE0979FE6
S1131000902D879F802D910D11240895BB27FB01FE
S11310105527AA27880F991FAA1FA41710F0A41BED
S113102083955051B9F7A05DAA3308F0A95DA19347
S1131030009779F7B111B1931192CB010C94200868
S1131040DC01FC01672F71917723E1F7329704C02B
S11310507C916D9370836291AE17BF07C8F30895B6
S1071060F894FFCF2E
S11310640AFA6D706F733A200020736465673A203E
S1131074002076616C3A200053455249414C205279
S113108445414459210D0A005457492052454144CD
S113109459210D0A00414443205245414459210D2C
S11310A40A00535445505045522052454144592155
S11310B40D0A00534552564F205245414459210DBF
S11310C40A0043616C6962726174696E672E2E2E24
S11310D40D0A00232323232323232323232323232A
S11310E423232323232323232323232323232320CB
S11310F40D0A004C4944415220526561647921200F
S11311040D0A005479706520233F20666F72206DA8
S11311146F726520696E666F726D6174696F6E2E8D
S11311240D0A00506F737369626C6520616374699E
S11311346F6E733A200D0A00233F203A2048656CF1
S113114470200D0A002331203A204F6E6574696DB6
S113115465206D656173757265206F6620646973BB
S113116474616E63650D0A002332203A205261646F
S11311746172206D6F64652032440D0A00233320AC
S11311846D6D6D20737373203A2053657420506F12
S1131194736974696F6E206F66204D6F746F72206B
S11311A4616E6420536572766F200D0A0023342027
S11311B43A2043616C6962726174696F6E200D0A2E
S11311C4002335203A205261646172206D6F646596
S11311D420334420284D206669727374290D0A0053
S11311E42336203A205261646172206D6F64652055
S11311F43344202853206669727374290D0A00232A
S113120437203A20536574206E756D626572206FC1
S1131214662076616C75657320706572206D6561F6
S1131224737572656D656E74202864656661756C8A
S113123474203D203130290D0A002338203A204FF0
S11312446E6574696D65206D656173757265206F73
S1131254662076656C6F6369747920696E20316DDC
S11312642F730D0A002339203A204F6E6574696D7B
S113127465206D656173757265206F662076656C93
S11312846F6369747920696E20302E316D2F730D6C
S11312940A00236120783A20536574204F666673EC
S11312A46574206F66206D6561737572656D656E16
S11312B4740D0A004F6E6574696D65204D65617324
S11312C47572653A200D0A005261646172206D6F73
S11312D464652032442061637469766174656421B1
S11312E4200D0A006F6B0043616C6962726174655E
S11312F464200D0A005261646172206D6F6465207C
S1131304334420284D206669727374292061637400
S113131469766174656421200D0A00526164617206
S1131324206D6F64652033442028532066697273EA
S113133474292061637469766174656421200D0ADB
S1131344002337203A20536574206E756D626572EC
S1131354206F662076616C75657320706572206DEC
S11313646561737572656D656E740D0A004E756DF5
S1131374626572206F662056616C756573203D202A
S11313840056656C6F63697479203D20002D004F0D
S11313946666736574203D2000556E6B6E6F776EC0
S10D13A420636F6465210D0A000048
S9030000FC
