:100000000C9443000C9460000C9460000C9460000D
:100010000C9460000C9460000C9460000C946000E0
:100020000C9460000C9460000C9460000C946000D0
:100030000C9460000C9460000C9460000C946000C0
:100040000C9460000C9460000C9488050C94600083
:100050000C9460000C9460000C9460000C946000A0
:100060000C9460000C9460006C038003CD03DD03EE
:10007000E40344045E048304A804C304C304C30467
:10008000C304C3043E0311241FBECFEFD8E0DEBF7C
:10009000CDBF14E0A0E0B1E0ECE2F0E102C00590D9
:1000A0000D92A230B107D9F724E0A2E0B4E001C07C
:1000B0001D92AD31B207E1F70E94D3020C941408EF
:1000C0000C940000ECE7F0E0808181648083EAE733
:1000D000F0E08081876C8083808186FDFDCF8091F8
:1000E0007800909179000895EAE7F0E080818064DB
:1000F0008083808186FDFDCF80917800909179008A
:1001000008950F931F93CF93DF93D82F882359F02F
:10011000C0E000E010E00E947400080F191FCF5FDC
:10012000CD13F9CF02C000E010E06D2F70E0C801E0
:100130000E948607CB01DF91CF911F910F91089507
:10014000CF93DF9300D0CDB7DEB7F89444E060E002
:1001500082E60E94D806853041F1EFE9FFE0319751
:10016000F1F700C000008111F1CF22E0AE014F5F36
:100170005F4F6FE882E60E94F806EFE9FFE03197F3
:10018000F1F700C00000853099F08111EECF78942E
:10019000298130E08A81322F2227280F311D211535
:1001A000310549F0822F932F08C085E090E005C00B
:1001B00085E090E002C080EA9FE00F900F90DF9111
:1001C000CF910895EF92FF920F931F93CF937C01ED
:1001D000892B71F0C0E000E010E00E94A000080F41
:1001E000191FCF5F2C2F30E02E153F05B0F302C052
:1001F00000E010E0C801B7010E948607CB01CF9153
:100200001F910F91FF90EF900895CF93882311F0E5
:10021000C0E801C0C0EAF8944C2F64E082E60E9476
:10022000D806EFE9FFE03197F1F700C00000811137
:10023000F3CF7894CF910895F89440E060E082E69F
:100240000E94D806EFE9FFE03197F1F700C0000007
:100250008111F3CF78940895CF93DF931F92CDB798
:10026000DEB7F89444E060E082E60E94D80685306C
:10027000E9F0EFE9FFE03197F1F700C000008111EC
:10028000F1CF21E0AE014F5F5F4F69E082E60E944F
:10029000F806853069F0EFE9FFE03197F1F700C02B
:1002A00000008111EECF7894898103C085E001C000
:1002B00085E00F90DF91CF9108951F93CF93DF9347
:1002C000182F882369F0C0E0D0E00E942C01882319
:1002D00014F4D80F01C0D80FCF5FC113F6CF01C0FF
:1002E000D0E08D2FDD0F990B612F70E00E949A07EF
:1002F000862FDF91CF911F910895CF93C82FF89447
:100300004C2F63E182E60E94D806EFE9FFE03197C7
:10031000F1F700C000008111F3CF7894CF910895D8
:100320000E94960680E00E947D010895CF93DF939E
:100330001F92CDB7DEB7F89421E0AE014F5F5F4F5B
:1003400063E182E60E94F806853029F08111F4CF3E
:100350007894898101C085E00F90DF91CF91089555
:10036000181619066CF420E030E0EFE9FFE0319751
:10037000F1F700C000002F5F3F4F28173907A9F79A
:10038000089584B5836A84BD85B5826085BD88E79C
:1003900087BD88BD08958AB18C6F8AB9209A8BB1C8
:1003A00080678BB90E94C1010895EF92FF920F936D
:1003B0001F93CF93882309F474C0C62F082F10E031
:1003C0000F2EF8ECEF2EF12CF02D2091030430E0ED
:1003D0002F5F3F4F23703078332334F4215031099D
:1003E0002C6F3F6F2F5F3F4F20930304C13049F5BF
:1003F0008091020490E00196B7010E949A078093D1
:100400000204213061F028F0223079F0233099F095
:1004100040C05B9A289A8BB18B778BB93AC08BB16D
:1004200088688BB95A98289834C08BB184688BB986
:100430005B9828982EC05A9A289A8BB187778BB9E7
:1004400028C08091020490E00197B7010E949A07AA
:1004500080930204213061F028F0223079F02330BB
:1004600099F017C05A9A289A8BB187778BB911C027
:100470008BB184688BB95B9828980BC08BB1886866
:100480008BB95A98289805C05B9A289A8BB18B77BC
:100490008BB98091000190E00E94B0011F5F1013A2
:1004A00094CFCF911F910F91FF90EF90089591E01D
:1004B000883C08F490E028E3929F800D1124982F47
:1004C00080910204981728F46FEF891B0E94D501D0
:1004D0000895891728F461E0981B892F0E94D5019F
:1004E0000895809102040895EF92FF920F931F9355
:1004F000CF93DF93D1E00F2EFCE3EF2EF02DFF24FE
:10050000F394CF2D0E2D10E0A89585E00E94810078
:100510000817190720F082E38093020416C0D13037
:1005200029F46F2D8F2D0E94D50104C06FEF8F2D00
:100530000E94D501CF5FC53639F7D1956D2F84E67E
:100540000E94D50185E0E80EDCCFDF91CF911F91AD
:100550000F91FF90EF9008950F931F93CF93DF9328
:10056000082F162FEA0182E091E00E94E904802F13
:1005700090E00E94F80489E091E00E94E904812F54
:1005800090E00E94F80481E191E00E94E904CE012C
:100590000E94F80486E993E00E94E904DF91CF917C
:1005A0001F910F9108959FE088E10FB6F894A895E8
:1005B000809360000FBE909360000E94C80488E1A1
:1005C00091E00E94E904A8950E94900188E291E0E0
:1005D0000E94E904A8950E94620085E391E00E94D0
:1005E000E904A8950E94CB0182E491E00E94E9040D
:1005F000A8950E94C90583E591E00E94E904A895A9
:1006000082E691E00E94E9040E947402A89583E7C3
:1006100091E00E94E90483E991E00E94E90483EA01
:1006200091E00E94E904A8951AE0312CB12C4424F1
:100630004394CB2C942C0F2EF4E6AF2EF02DEB2C04
:10064000DA2CF42CA8952FEF81EE94E02150804015
:100650009040E1F700C000000E941205C82F0E94E0
:100660001205C33279F790E0FC01F197EF30F10504
:1006700008F089C1EC5CFF4F0C94AE07A89583ECA1
:1006800091E00E94E90488ED91E00E94E90485EE82
:1006900091E00E94E90488E092E00E94E9048DE183
:1006A00092E00E94E9048DE492E00E94E90481E670
:1006B00092E00E94E90480E892E00E94E9048BEB5A
:1006C00092E00E94E90486EE92E00E94E90483E150
:1006D00093E00E94E904B6CFA89585E393E00E94D9
:1006E000E904812F932D0E94E200EC010E94EC05A9
:1006F000882E0E947102AE01682D0E94AC02A2CF2A
:10070000A89589E493E00E94E9046B2CA89521E068
:10071000621609F497CF0E9471028130F9F40C2D12
:10072000A8950E941205833221F40E947402692C5C
:10073000EDCF802F0E945702812F932D0E94E2005F
:10074000EC010E94EC05782E0E947102AE01672D2B
:100750000E94AC020F5F053619F7D8CF8A2CA895F6
:100760000E941205833221F40E947402692CCECFBC
:10077000882D0E945702812F932D0E94E200EC01E8
:100780000E94EC05782E0E947102AE01672D0E9436
:10079000AC028A948110E3CFB9CFA8950E941205CC
:1007A0000E943105D82F0E943105C82F8D2F0E943D
:1007B00057028C2F0E94D20545CF0E94740285E615
:1007C00093E00E94E9043ECF83E793E00E94E904AE
:1007D0006B2CA89581E0681609F434CFA8957C2C81
:1007E00004C0A89591E06916A1F3872D0E94D20557
:1007F0000E2DA8950E941205833221F40E947402E6
:100800006F2C14C0802F0E945702812F932D0E94BD
:10081000E200EC010E94EC05582E0E947102AE012C
:10082000652D0E94AC020F5F053619F781E0870D38
:100830000E94D205A89521E0621601F18D2C01C01D
:10084000A8950E941205833221F40E9474026F2C35
:1008500015C0882D0E945702812F932D0E94E2001F
:10086000EC010E94EC05582E0E947102AE01652D2C
:100870000E94AC028A948FEF8812E2CF7394739433
:100880009CE57912AECFA5CF89E993E00E94E904F7
:10089000A8950E9412050E943105D82FC92F182F44
:1008A000392E85EC93E00E94E9048D2F9C2F0E9445
:1008B000F80486E993E00E94E904C4CE8BEB92E051
:1008C0000E94E904A895842D0E940501812F0E94B1
:1008D0005D01C82F880FDD0B0E941C0189ED93E09C
:1008E0000E94E904DD233CF4D195C195D10985EE40
:1008F00093E00E94E904CE010E94F80486E993E0A7
:100900000E94E9049FCE86EE92E00E94E904A89539
:100910008B2D0E940501812F0E945D01C82F880F39
:10092000DD0B0E941C0189ED93E00E94E904DD23A8
:100930003CF4D195C195D10985EE93E00E94E9047C
:10094000CE010E94F80486E993E00E94E9047ACE81
:1009500083E193E00E94E904A8950E9412050E9499
:1009600031050E947D0187EE93E00E94E9040E9418
:100970009601082E000C990B0E94F80486E993E07A
:100980000E94E9045FCE81EF93E00E94E9045ACE11
:1009900085E094E090931C0480931B0490931A04C8
:1009A000809319041092C50081E18093C400E2ECA9
:1009B000F0E080818660808388E98093C10078942C
:1009C0000895E0ECF0E0908195FFFDCF8093C600A4
:1009D0000895CF93DF93EC018881882331F021962D
:1009E0000E94E10489918111FBCFDF91CF9108959D
:1009F000CF93DF9300D000D000D0CDB7DEB74AE070
:100A0000BE016F5F7F4F0E94D707CE0101960E9403
:100A1000E90426960FB6F894DEBF0FBECDBFDF9176
:100A2000CF910895E0911B04F0911C04809119046A
:100A300090911A048E179F0791F0808194E0E8311D
:100A4000F90739F425E034E030931C0420931B04AB
:100A500008953196F0931C04E0931B04089580E000
:100A60000895DF92EF92FF920F931F93CF93DF933E
:100A70001F92CDB7DEB719820F2EF6E0FF2EF02DB4
:100A8000EE24E39400E010E0DD24DA940E941205E5
:100A900089830115110519F48D3269F51FC0805342
:100AA0008A30B0F4083883E1180714F5C801880FBC
:100AB000991F000F111F000F111F000F111F080FAA
:100AC000191FCE0101960E94B907080F191F07C010
:100AD000E09EC001E19E900D112411C0ED2CFA940E
:100AE000F110D4CFE09EC001E19E900D112407C00B
:100AF00080E090E004C080538A30C0F2E9CF0F90CC
:100B0000DF91CF911F910F91FF90EF90DF900895AB
:100B10001F920F920FB60F9211242F938F939F93D2
:100B2000EF93FF93F894E0911904F0911A048091E7
:100B3000C60080838091190490911A0424E08831C2
:100B4000920739F485E094E090931A048093190495
:100B500005C0019690931A04809319047894FF912C
:100B6000EF919F918F912F910F900FBE0F901F903B
:100B70001895219A82E085B982E8809380008BE104
:100B80008093810087E893E19093870080938600AB
:100B900008950E94B9058FE392E0909389008093B5
:100BA00088000895482F8B3510F00E94B40724EB7D
:100BB000281B253B80F437E1239FC00111246AE004
:100BC00070E00E949A076A567F4F70938900609385
:100BD0008800409304040895809104040895ECEB88
:100BE000F0E084E98083909101012081822F80715F
:100BF00024FF15C0911105C083E00895911103C031
:100C00000DC0ECEBF0E085E88A95F1F7000091501B
:100C10002081822F807124FDF1CF089583E0089513
:100C2000CF938093BB00ECEBF0E084E8808380916D
:100C30000101908199238CF0811105C083E037C0B8
:100C4000811103C02FC0ECEBF0E095E89A95F1F725
:100C500000008150908199239CF78091B900887F92
:100C6000883111F18091B900887F8034F9F080914A
:100C7000B900887F803229F08091B900887F88345C
:100C800041F48091B900C82FC87F0E94EF058C2FD6
:100C90000EC08091B900ECEBF0E0108294E49083F8
:100CA000887F05C083E003C080E001C080E0CF9171
:100CB0000895CF938093BB00ECEBF0E084E8808351
:100CC00080910101908199238CF0811105C083E00E
:100CD0002BC0811103C025C0ECEBF0E095E89A959C
:100CE000F1F700008150908199239CF78091B90021
:100CF000887F8832C1F08091B900887F883541F4BF
:100D00008091B900C82FC87F0E94EF058C2F0CC0BE
:100D10008091B900ECEBF0E0108294E49083887F3E
:100D200003C083E001C080E0CF910895E9EBF0E0DB
:100D3000808180838081808388E48093B80084E40C
:100D40008093BC0008958091B900887F08950E9427
:100D5000A306ECEBF0E08081846A8083809101013E
:100D6000908199238CF0811105C085E0089581114F
:100D700003C018C0ECEBF0E095E89A95F1F700009D
:100D80008150908199239CF70E94A306883061F0DE
:100D9000803161F0883359F4ECEBF0E0108294E498
:100DA0009083089585E0089580E0089580E0089597
:100DB0001F93CF93DF93C82FD62F142F0E94A7061F
:100DC000811112C08C2F880F0E94100681110CC057
:100DD0008D2F0E945906811107C0812F0E9459064C
:100DE000811102C00E94EF05DF91CF911F910895FC
:100DF000CF92DF92FF920F931F93CF93DF93C82F71
:100E0000162FF42E052FD22F0E94A706811176C02F
:100E1000CC0F8C2F0E941006811170C0812F0E9470
:100E2000590681116BC00E94A706811167C081E03D
:100E30008C0F0E941006811161C0DD2309F45AC095
:100E4000CF2CD02E60E0CFEFCD0FECEBF0E074ECC8
:100E500029EB30E014E404E84BEB50E06C1320C0C5
:100E600000838091010107C08823C1F095E89A951D
:100E7000F1F70000815090819923B4F7D9018C914A
:100E8000887F883329F48C91887F1082108303C077
:100E9000D9018C91887F883529F130C083E02EC03C
:100EA000708380910101908199236CF0811103C0BE
:100EB00024C0882311F1B5E8BA95F1F700008150FC
:100EC00090819923B4F7D9018C91887F883329F4D4
:100ED0008C91887F1082108303C0D9018C91887F08
:100EE000803561F4DA018C91D6018D936D016F5FCD
:100EF0006D13B4CF0E94EF0501C083E0DF91CF9165
:100F00001F910F91FF90DF90CF900895AA1BBB1BFC
:100F100051E107C0AA1FBB1FA617B70710F0A61BF9
:100F2000B70B881F991F5A95A9F780959095BC011A
:100F3000CD01089597FB072E16F4009407D077FD96
:100F400009D00E94860707FC05D03EF49095819554
:100F50009F4F0895709561957F4F0895EE0FFF1F85
:100F60000590F491E02D099481E090E0F8940C94C0
:100F70001408FC0188279927E89421912032E9F38D
:100F8000293010F02E30C8F32B3241F02D3239F4D5
:100F9000689404C00E94E207820F911D21912053A2
:100FA0002A30C0F31EF4909581959F4F0895BB277A
:100FB0004A3031F4992322F4BDE2909581959F4FF8
:100FC0000C94EB077AE0979F902D879F802D910DD1
:100FD00011240895BB27FB015527AA27880F991FC5
:100FE000AA1FA41710F0A41B83955051B9F7A05D58
:100FF000AA3308F0A95DA193009779F7B111B193D5
:101000001192CB010C940408DC01FC01672F719153
:101010007723E1F7329704C07C916D9370836291DE
:0C102000AE17BF07C8F30895F894FFCF87
:10102C000AFA6D706F733A200020736465673A207A
:10103C00002076616C3A200053455249414C2052B5
:10104C0045414459210D0A00545749205245414409
:10105C0059210D0A00414443205245414459210D68
:10106C000A00535445505045522052454144592191
:10107C000D0A00534552564F205245414459210DFB
:10108C000A0043616C6962726174696E672E2E2E60
:10109C000D0A002323232323232323232323232366
:1010AC002323232323232323232323232323232007
:1010BC000D0A004C4944415220526561647921204B
:1010CC000D0A005479706520233F20666F72206DE5
:1010DC006F726520696E666F726D6174696F6E2ECA
:1010EC000D0A00506F737369626C652061637469DB
:1010FC006F6E733A200D0A00233F203A2048656C2E
:10110C0070200D0A002331203A204F6E6574696DF2
:10111C0065206D656173757265206F6620646973F7
:10112C0074616E63650D0A002332203A20526164AB
:10113C006172206D6F64652032440D0A00233320E8
:10114C006D6D6D20737373203A2053657420506F4E
:10115C00736974696F6E206F66204D6F746F7220A7
:10116C00616E6420536572766F200D0A0023342063
:10117C003A2043616C6962726174696F6E200D0A6A
:10118C00002335203A205261646172206D6F6465D2
:10119C0020334420284D206669727374290D0A008F
:1011AC002336203A20536574206E756D626572206B
:1011BC006F662076616C75657320706572206D6545
:1011CC0061737572656D656E7420286465666175F2
:1011DC006C74203D203130290D0A002337203A2031
:1011EC004F6E6574696D65206D65617375726520F0
:1011FC006F662076656C6F6369747920696E203137
:10120C006D2F730D0A002338203A204F6E657469D8
:10121C006D65206D656173757265206F66207665EE
:10122C006C6F6369747920696E203130636D2F7334
:10123C000D0A00233920783A20536574204F6666D6
:10124C00736574206F66206D6561737572656D656D
:10125C006E740D0A004F6E6574696D65204D656185
:10126C00737572653A200D0A005261646172206DCB
:10127C006F646520324420616374697661746564BF
:10128C0021200D0A0043616C6962726174656420EF
:10129C000D0A005261646172206D6F6465203344E5
:1012AC0020284D20666972737429206163746976F5
:1012BC006174656421200D0A002336203A205365A1
:1012CC0074206E756D626572206F662076616C7528
:1012DC00657320706572206D6561737572656D65DF
:1012EC006E740D0A004E756D626572206F66205625
:1012FC00616C756573203D200056656C6F63697475
:10130C0079203D20002D004F6666736574203D20CA
:10131C0000556E6B6E6F776E20636F6465210D0ADE
:02132C000000BF
:00000001FF
